:03000000020410E7
:0C041000787FE4F6D8FD75817B0204576C
:0305590025730007
:080543000264000002620000E6
:10000300759850758920758DFD758BFDD28ED2AC98
:05001300D2AFD29922DA
:08054C008F993099FDC299223C
:10051E008B108A118912AB10AA11A91212038260D4
:10052E00130512E5127002051114F9120382FF125F
:05053E00054C80E222E3
:05055400AE0702054C9A
:080018007FA07E49DEFEDFFC43
:0100200022BD
:1004F400756600756705120003756B00756C0075F1
:100504006D227BFF7A0579591200887F0D12054C04
:0A0514007F0A12054C12001880DF68
:0300230002049C38
:07049C00C0E0C0D075D008DC
:1004A300309849C298AF99EFFD7C00BC0D2FBD0A6F
:1004B3002C856462856563C3E5639440E56264806B
:1004C3009480501174222563F876000563E5637008
:1004D300E6056280E2756400756500800F7422256D
:0C04E30065F8A60F0565E565700205646C
:0504EF00D0D0D0E03286
:10041C000204F4E493A3F8E493A34003F68001F2FE
:10042C0008DFF48029E493A3F85407240CC8C333E1
:10043C00C4540F4420C8834004F456800146F6DFB0
:10044C00E4800B0102040810204080900543E47EF8
:10045C00019360BCA3FF543F30E509541FFEE493A5
:10046C00A360010ECF54C025E060A840B8E493A36C
:10047C00FAE493A3F8E493A3C8C582C8CAC583CA97
:10048C00F0A3C8C582C8CAC583CADFE9DEE780BE4F
:01054B0000AF
:10038200BB010689828A83E0225002E722BBFE0279
:09039200E32289828A83E49322AC
:10002600E577246BF8E60577227868300702786B67
:10003600E475F0011203DA0203822000EB7F2ED270
:10004600008018EF540F2490D43440D4FF30040BB2
:10005600EF24BFB41A0050032461FFE5786002154F
:1000660078057BE57B7002057A30070D7868E475C4
:10007600F0011203DAEF0203C80205547403D20733
:100086008003E4C207F5778B688A69896AE4F578A4
:10009600F57AF57BE57860077F2012006180F575BB
:1000A60079FFC201C200C202C203C205C206C2086B
:1000B60012002FFF700D3007057F00120072AF7B14
:1000C600AE7A22B4255FC2D5C20412002FFF24D017
:1000D600B40A00501A75F00A787830D50508B6FFCC
:1000E6000106C6A426F620D5047002D20380D924C0
:1000F600CFB41A00EF5004C2E5D204020272D20154
:1001060080C6D20080C0D20280BCD2D580BAD205C9
:1001160080B47F201200612002077401B578004088
:10012600F1120026FF12006102009AD208D2068060
:1001360095120026FB120026FA120026F94A4B7089
:100146000679437A037BFF20022EE578602A7E003B
:100156008E8275830012039B60060EEE657970F041
:10016600C2D5EBC0E0EAC0E0E9C0E0EE1202B9D0C9
:10017600E0F9D0E0FAD0E0FB120382FF60AAEBC000
:10018600E0EAC0E0E9C0E0120061D0E02401F9D065
:10019600E03400FAD0E0FBE5790460DCD579D9805B
:1001A600877BFF7A0279B5D202809C79108002792A
:1001B60008C206C2088008D2D5790A8004790AC224
:1001C600D5E579047002F579E4FAFDFEFF12002602
:1001D600FC7B08200113120026FD7B1030000A125A
:1001E6000026FE120026FF7B20EC3382D592D550E6
:1001F60013C3E43000069FFFE49EFEE42001039D46
:10020600FDE49CFCE4CBF8C201EC700CCFCECDCC67
:10021600E824F8F870F38017C3EF33FFEE33FEEDF2
:1002260033FDEC33FCEB33FB994002FB0FD8E9EBD3
:10023600300105F8D0E0C448B201C0E00AEC4D4EEA
:100246004F78207B0070C2EAB5790040BCC0E0124E
:1002560002BBD0F0D0E0200104C4C0E0C4B201C0AB
:10026600F012004AD0F0D5F0EB02009A1203EA0130
:10027600375301B15801084C01044201B54F01BD85
:0F0286004401BD49011D4301C35501A74601A70E
:100295004501A747036350010C2D01102E01332B97
:1002A500011423013120034C2A00CC480000012B06
:1002B5003F3F3F00790AA2D5200314300509B91044
:1002C500020404B9080104A2D52006025001042045
:1002D50002689202B578005034C0E07F20300319DF
:1002E5007F30A20272067205500F120312C202C2BB
:1002F50006C205C2087F30800F300503E9C0E01251
:100305000061300503D0E0F9D0E0B578CC300517B1
:100315007F30B9100C1200617F583004077F788058
:1003250003B908031200613002057F2D0200617FC9
:10033500202008F87F2B2006F322920280CF286E1A
:10034500756C6C2900D2011200263001F8C20178C3
:100355007830D50108F60200CC2D504349581200DB
:10036500262403B405004001E490035E9312005275
:0D037500743A120052D2037578040201B1EF
:10039B00BB010CE58229F582E5833AF583E0225017
:1003AB0006E92582F8E622BBFE06E92582F8E22261
:0D03BB00E58229F582E5833AF583E493227B
:1003C800BB010689828A83F0225002F722BBFE0114
:0203D800F3220E
:1003DA00FAE6FB0808E6F925F0F618E6CA3AF62224
:1003EA00D083D082F8E4937012740193700DA3A3A2
:1003FA0093F8740193F5828883E4737402936860B6
:06040A00EFA3A3A380DFB5
:00000001FF
